:02000004080AE8
:1000000000000A08580D0A08000006000600050155
:0800100004029A080000000040
:04001800840B0A0843
:10001C0009480A4908B5884205D0094A824202D0EB
:10002C00121A00F0FFFC0748074A0021121A00F0D0
:10003C0007FD064808BD00BF00000020C40C0A08DC
:10004C006C0000206C000020B5050020B5050020D8
:10005C0070B500F09FFC0025054E064CA41BA408AF
:10006C00A54200D170BD56F8043B98470135F7E71F
:10007C00A40C0A08C00C0A0800F011B808B500F06E
:10008C000FF8BDE8084000F03DBC00F017B900784F
:10009C00B0FA80F040097047012303707047704735
:1000AC007047000008B5024B1B685B68019308BDE4
:1000BC009C01060808B5024B1B685B69019308BDDF
:1000CC009C01060808B5024B1B689B69019308BD8F
:1000DC00C401060808B5024B1B685B6A019308BD96
:1000EC00C401060808B5024B1B689B6A019308BD46
:1000FC00C401060808B5024B1B68DB6A019308BDF6
:10010C00C401060808B5024B1B681B6B019308BDA4
:10011C00C401060808B5024B1B685B6B019308BD54
:10012C00C401060808B5024B1B681B6C019308BD83
:10013C00C401060808B5024B1B681B68019308BD77
:10014C00D801060808B5024B1B681B69019308BD52
:10015C00D801060808B5024B1B685B69019308BD02
:10016C00D801060808B5024B1B689B69019308BDB2
:10017C00D801060808B5024B1B68DB69019308BD62
:10018C00D801060808B5024B1B681B6A019308BD11
:10019C00D801060808B5024B1B689B6C019308BD7F
:1001AC00C001060808B5024B1B685B68019308BDCB
:1001BC00A401060808B5034B1B68D3F890300193D3
:1001CC0008BD0000A401060808B5034B1B68D3F852
:1001DC009C30019308BD0000A401060808B5024B31
:1001EC001B68DB6B019308BDCC01060808B5024BFC
:1001FC001B685B68019308BDC801060808B5024B73
:10020C001B689B68019308BDC801060808B5024B22
:10021C001B68DB68019308BDC801060808B5024BD2
:10022C001B681B69019308BDC801060808B5024B81
:10023C001B685B69019308BDC801060808B5024B31
:10024C001B689B69019308BDC801060808B5024BE1
:10025C001B68DB69019308BDC801060808B5024B91
:10026C001B681B6A019308BDC801060808B5024B40
:10027C001B681B6B019308BDC801060808B5024B2F
:10028C001B685B6B019308BDC801060808B5024BDF
:10029C001B681B6C019308BDC801060808B5024B0E
:1002AC001B685B6C019308BDC801060808B5024BBE
:1002BC001B681B68019308BDA001060808B5024B1A
:1002CC001B685B68019308BDA001060808B5024BCA
:1002DC001B685B6C019308BDA0010608704710B544
:1002EC000446182100F096FB204610BDF8B50E46CA
:1002FC00002400F10807051D17F8011D0A223046DD
:10030C0000F0EFF8AF42044401D12046F8BD002CB8
:10031C00F2D02E21304600F0E1F80444ECE7000066
:10032C0010B50446044B1122002140F8043B00F0A8
:10033C0087FB204610BD00BFA00B0A080346074AE6
:10034C0010B543F8042B01F1100251F8044B914203
:10035C0043F8044BF9D10A781A7010BDA00B0A08A7
:10036C00024AC0E90021042202757047A00B0A085A
:10037C0010B59DF8084044EA0324042344EA0244DF
:10038C0044EA01644460037510BD000037B5044DA8
:10039C0005609DF818500095FFF7EAFF03B030BDDB
:1003AC00A00B0A08014B024A1A6070476C0000202F
:1003BC00AC0B0A08002340681A46FFF717BF00224F
:1003CC0002214068FFF722BF002240681146FFF768
:1003DC0015BF002240681146FFF720BF002340687C
:1003EC001A461946FFF722BF002340681A461946E1
:1003FC00FFF724BF00214068FFF748BF0021406889
:10040C00FFF74CBF0022406881F00101FFF71EBFCF
:10041C0000224068FFF72ABF002240681146FFF710
:10042C002DBF002240681146FFF718BF70B5154666
:10043C008EB0044608A8FFF773FF1122002103A811
:10044C0000F0FEFA0026284600F026FB0A4B009628
:10045C0081B25B68284603AAFFF79CFE30B1314697
:10046C002046FFF77DFF20460EB070BD204603A945
:10047C00FFF764FFF7E700BFF0040020024B034ACC
:10048C001A6000225A60704770000020B80B0A08EE
:10049C00F8B506460D4600248F18BD420CD03368C3
:1004AC0030469B6815F8011B9847031E01DB1C4462
:1004BC00F3E7002C08BF1C462046F8BD70B5054676
:1004CC000C46084649B100F0E7FA2B680246214673
:1004DC002846BDE87040DB68184770BD03689B6810
:1004EC0018470023012A98BF0A2230B58BB00C465E
:1004FC008DF8243009A92546B4FBF2F404FB125301
:10050C00DBB2092B94BF30333733DBB2AA4201F88C
:10051C00013DF0D9FFF7D2FF0BB030BD0022014BEB
:10052C009A6070477800002002220020044B1A6069
:10053C00044B054A1860988098719A60FFF732BE98
:10054C0094000020880000200000FFFF024B1A6876
:10055C00024B1A60704700BF00000020980000207A
:10056C00704741747047704708B5007CFFF7DAFD9F
:10057C0020EAE07008BD08B5007CFFF7B3FD20EA67
:10058C00E07008BD08B5007CFFF7BCFD40EAE070E8
:10059C0008BD08B5007CFFF7ADFD40EAE07008BD72
:1005AC00007CFFF7B7BD70B5467C04460D462EB1F6
:1005BC002946207CBDE87040FFF78CBD007CFFF71E
:1005CC00B1FD0028F4DC304670BD10B50446142192
:1005DC0000F020FA204610BD4FF0000C10B5044678
:1005EC00084611464FF47A72C4E901C2044A2074D9
:1005FC002260012262741A46FFF764FD204610BD8A
:10060C00100C0A0838B50C4D2978BFF35B8F11F02C
:10061C0001040FD12846FFF73AFD58B12146074B8C
:10062C00074A0848FFF7D8FF2846FFF735FD06486C
:10063C0000F0F2F9034838BD9C0000202401002092
:10064C00A0000020A801002073050A08417470471F
:10065C007047704708B50021007CFFF783FD40EA26
:10066C00E07008BD08B50121007CFFF77BFD40EA76
:10067C00E07008BD08B5007CFFF76CFD20EAE07067
:10068C0008BD08B5007CFFF75DFD20EAE07008BDF1
:10069C0038B50446007C0D46FFF75CFD002801DCF4
:1006AC00607C28B12946207CFFF764FD20EAE070CD
:1006BC0038BD007CFFF766BD10B50446142100F070
:1006CC00A9F9204610BD704710B54FF47A73044653
:1006DC0008460021C4E90113044B20742360012354
:1006EC0011466374FFF726FD204610BD400C0A0826
:1006FC0010B504461422002100F0A2F9054B204647
:10070C006360054BE36040F2011323818123238254
:10071C0010BD00BFEC010020ED02002030B50E4DE5
:10072C0087B001A8FFF7E4FF2978BFF35B8F11F0C6
:10073C0001040ED12846FFF7AAFC50B1214601AAAC
:10074C000648FFF7C1FF2846FFF7A6FC044800F057
:10075C0063F9024807B030BDBC010020C401002081
:10076C005D060A0810B504461422002100F068F951
:10077C00054B20466360054BE36040F20113238177
:10078C008123238210BD00BF6E0300206F04002064
:10079C0010B50E4C86B001A8FFF7E4FF2378BFF329
:1007AC005B8FDB070ED42046FFF771FC50B10121A3
:1007BC0001AA0748FFF788FF2046FFF76DFC0548A4
:1007CC0000F02AF9024806B010BD00BFC00100209D
:1007DC00D8010020D3060A08002240681146FFF712
:1007EC001DBDF0B5154689B011220E4604460021F8
:1007FC0003A800F025F9284600F04EF9002781B235
:10080C0073682846009703AAFFF7C4FC30B1394639
:10081C002046FFF7A5FD204609B0F0BD204603A9F0
:10082C00FFF78CFDF7E7002240681146FFF716BD75
:10083C00002240681146FFF721BD00224068FFF7F7
:10084C0015BD0022406881F00101FFF7FFBC0023B9
:10085C0040681A461946FFF7F1BC002340681A4657
:10086C001946FFF7E3BC002240681146FFF7C6BCEF
:10087C00002202214068FFF7C9BC002340681A46D9
:10088C00FFF7B4BC0422024B5A60024A1A6070474C
:10089C00F0040020700C0A08014B1860704700BF70
:1008AC000400002008B5134B43B1FFF737FF036872
:1008BC001B699847002801DDAFF300800E4B43B154
:1008CC00FFF7A0FE03681B699847002801DDAFF312
:1008DC0000800A4B0BB1AFF30080094B43B1FFF71B
:1008EC0057FF03681B699847002801DDAFF30080B0
:1008FC0008BD00BF00000000000000000000000068
:10090C000000000008B5FFF7CDFFFFF7D3FB014B4C
:10091C00186008BD000500200548064A08B5121AE3
:10092C00054900F07FF8054B054A1A6008BD00BF69
:10093C000040024004400240C00C0A080040024043
:10094C001E1C279A002307B51A466FF077010093F7
:10095C00FFF73AFC03B05DF804FB000007B54388D1
:10096C000A2B08D0502B0BD1094B1B684BB103B091
:10097C005DF804EB1847FFF7E5FF03B05DF804FBE7
:10098C0000231A466FF077010093FFF71DFCF4E784
:10099C00FC040020002110B51148FFF797FC114B07
:1009AC001A68114B9A420CBF012200220F4B1A708D
:1009BC0001D0FFF7B1FFFFF775FB044600F048F8D4
:1009CC000B4B13B12046AFF3008000210848FFF712
:1009DC0005FCBDE8104000210648FFF7EBBB00BF4B
:1009EC00A5080A08004002401E1C279AF8040020A3
:1009FC000000000069090A08002307B51A461946C9
:100A0C0000930348FFF7C2FC03B05DF804FB00BF82
:100A1C0004050020FFF739BB002301461A4618468F
:100A2C0000F042B80A44914200F1FF3300D1704704
:100A3C0010B511F8014B914203F8014FF9D110BDDB
:100A4C0003460244934200D1704703F8011BF9E7B7
:100A5C0038B50D4B04461D68AB6B7BB91820FFF7FE
:100A6C0025FC0A4A0A4BA863C0E90023094B012262
:100A7C0083600B2383810023C0E904230022AB6B2A
:100A8C001C615A6138BD00BF040000200E33CDAB91
:100A9C0034126DE6ECDE0500034613F8012B002A38
:100AAC00FBD1181A013870472DE9F843DFF8BC80E8
:100ABC000646D8F800001F460D46914600F058F83F
:100ACC00264B1C6834B9264C1C60264B13B11B6892
:100ADC00C4F8883063681F2B07DDD8F8000000F0DD
:100AEC0049F84FF0FF30BDE8F8835EB3D4F88800C6
:100AFC0088B91D4B23B9D8F8000000F03AF8F0E79C
:100B0C004FF48470FFF7D2FB0028F4D00023C0E927
:100B1C004033C4F8880001226368022E40F8239009
:100B2C0002FA03F200EB8301D0F8003143EA02032E
:100B3C00C0F80031C1F8807002BFD0F804311A43FC
:100B4C00C0F804216368D8F800005A1C02336260B4
:100B5C0044F8235000F00EF80020C4E7A80500204C
:100B6C001C05002000000000B9020A0868000020E3
:100B7C0070477047704700001D000A085D000A08A6
:100B8C0085000A0889000A08000000000000000027
:100B9C0000000000F9020A08E9020A08EB020A0840
:100BAC00617070000000000000000000C1030A0822
:100BBC00CB030A08D5030A08DF030A08E9030A086D
:100BCC00F5030A0801040A0809040A0811040A08B2
:100BDC001D040A0825040A082F040A0839040A0807
:100BEC0025592D256D2D25645425483A254D3A253A
:100BFC0053257A0061736374696D65000000000011
:100C0C00000000006D050A08D7050A08B3050A089C
:100C1C009D040A0883050A089F050A0891050A081D
:100C2C00AD050A086F050A0875050A0800000000E2
:100C3C00000000005F060A08C5060A089D060A089F
:100C4C009D040A088F060A0861060A0871060A083C
:100C5C00BF060A0881060A0859060A0800000000A7
:100C6C000000000087080A087D080A0873080A08B3
:100C7C00E5070A0867080A085B080A0801040A085D
:100C8C0009040A084F080A0847080A083D080A0818
:100C9C0033080A08EF070A08B1030A0889040A088E
:100CAC0029050A0835050A0859050A0891080A0891
:040CBC00050A0A0813
:040CC0000000000030
:100CC400000C0A08080000200000000000000000DA
:100CD4000000000000000000000000000000000010
:100CE4000000000000000000000000000000000000
:100CF40000000000000000000000000000000000F0
:100D040000000000000000000000000000000000DF
:100D140000000000000000000000000000000000CF
:0C0D24000000000000000000AD050020F1
:100D3000FFFFFFFF00000102030405060708090A80
:100D40000B0C0D0E0F101112131415161718191A7B
:080D50001B1C1D1E1F202800C2
:040D58007856341283
:04000005080A001CC9
:00000001FF
